:020000040800F2
:1000000060060020A9020008B1020008B30200083F
:10001000B5020008B7020008B9020008000000009D
:10002000000000000000000000000000BB0200080B
:10003000BD02000800000000BF020008C102000865
:10004000C3020008C3020008C3020008C30200087C
:10005000C3020008C3020008C3020008C30200086C
:10006000C3020008C3020008C3020008C30200085C
:10007000C3020008C3020008C3020008C30200084C
:10008000C3020008C3020008C3020008C30200083C
:10009000C3020008C3020008C3020008C30200082C
:1000A000C3020008C3020008C3020008C30200081C
:1000B000C3020008C3020008C3020008C30200080C
:1000C000C3020008C3020008C3020008C3020008FC
:1000D000C3020008C3020008C3020008C3020008EC
:1000E000C3020008C3020008C3020008C3020008DC
:1000F000C3020008C3020008C3020008C3020008CC
:10010000C3020008C3020008C3020008C3020008BB
:10011000C3020008C3020008C3020008C3020008AB
:10012000C3020008C3020008C3020008C30200089B
:10013000C3020008C3020008C3020008C30200088B
:10014000C3020008C3020008C3020008C30200087B
:10015000C3020008C3020008C3020008C30200086B
:10016000C3020008C3020008C3020008C30200085B
:10017000C3020008C3020008C30200080000000018
:10018000C3020008C3020008C3020008C30200083B
:10019000C3020008C3020008C3020008C30200082B
:1001A000C3020008C3020008C3020008C30200081B
:1001B000C3020008C3020008C3020008C30200080B
:1001C000C3020008C302000800000000C3020008C8
:1001D000C3020008C3020008C3020008C3020008EB
:1001E000C3020008C3020008C3020008C3020008DB
:1001F000C3020008C302000800F002F800F044F84F
:1002000014A696E8000CB244B344DA4501D100F0DC
:100210003BF8BAE80F000FA696E83000A5EB0405FE
:1002200004EB0607AAEB0704A7F101074FEA15152F
:100230004FEA3414A4F10104AC4201D300F024F8D5
:1002400013F0010F18BFFB1A43F0010300F001F88F
:10025000DBE718478C0200009C020000704700009A
:100260000023002400250026103A28BF78C1FBD8BF
:10027000520728BF30C148BF0B6070471FB500F060
:1002800021F91FBD10B510BD00F031F81146FFF780
:10029000F5FF00F0E9F800F04FF803B4FFF7F2FFC4
:1002A00003BC00F057F800000948804709480047A0
:1002B000FEE7FEE7FEE7FEE7FEE7FEE7FEE7FEE716
:1002C000FEE7FEE704480549054A064B7047000073
:1002D00069030008F90100086000002060060020A2
:1002E000600200206002002070477047704775462A
:1002F00000F02CF8AE4605006946534620F0070092
:10030000854618B020B5FFF7DDFFBDE820404FF06F
:1003100000064FF000074FF000084FF0000BAC460E
:10032000ACE8C009ACE8C009ACE8C009ACE8C00959
:1003300021F007018D46704710B50446AFF30080E9
:100340002046BDE81040FFF7A8BF000000487047F6
:100350000000002001491820ABBEFEE72600020085
:1003600070470000000000004EF68851CEF20001F8
:10037000086840F47000086070470000000000004A
:1003800043F63001C4F20201086840F00200086040
:1003900040F20041C4F20201086820F440400860C5
:1003A000086840F480400860086840F080500860A9
:1003B00040F20441C4F20201086820F080000860A5
:1003C000086820F48040086040F20841C4F202014D
:1003D000086840F440400860086840F040500860F9
:1003E00040F20C41C4F20201086820F44040086069
:1003F000086820F0405008607047000000000000CE
:1004000082B0019000200090FFE700980199884297
:1004100005D2FFE7FFE7009801300090F5E702B052
:10042000704700000000000082B00190ADF802109B
:100430008DF801209DF80100C00738B1FFE7BDF835
:100440000210012088400199886108E0BDF802008F
:1004500000F110010120884001998861FFE702B096
:10046000704700000000000080B588B000200790B1
:10047000FFF786FFFFE740F20040C4F2020003905E
:100480000721019101220592FFF7CEFF03980E216B
:10049000049100220292FFF7C7FF48F2A060C0F269
:1004A00001000690FFF7ACFF0199029A0398FFF74D
:1004B000BBFF03980499059AFFF7B6FF0698FFF76C
:1004C0009FFFD8E7F1EE100A4FF6FF71C0F2C0317E
:1004D00020EA010040F04070E1EE100A7047000091
:1004E000F004000800000020600600006002000820
:04000005080002A944
:00000001FF
