:020000040800F2
:1000000050070020C5020008CD020008CF020008FA
:10001000D1020008D3020008D50200080000000049
:10002000000000000000000000000000D7020008EF
:10003000D902000800000000DB020008DD02000811
:10004000DF020008DF020008DF020008DF0200080C
:10005000DF020008DF020008DF020008DF020008FC
:10006000DF020008DF020008DF020008DF020008EC
:10007000DF020008DF020008DF020008DF020008DC
:10008000DF020008DF020008DF020008DF020008CC
:10009000DF020008DF020008DF020008DF020008BC
:1000A000DF020008DF020008DF020008DF020008AC
:1000B000DF020008DF020008DF020008DF0200089C
:1000C000DF020008DF020008DF020008DF0200088C
:1000D000DF020008DF020008DF020008DF0200087C
:1000E000C1030008DF020008DF020008DF02000889
:1000F000DF020008DF020008DF020008DF0200085C
:10010000DF020008DF020008DF020008DF0200084B
:10011000DF020008DF020008DF020008DF0200083B
:10012000DF020008DF020008DF020008DF0200082B
:10013000DF020008DF020008DF020008DF0200081B
:10014000DF020008DF020008DF020008DF0200080B
:10015000DF020008DF020008DF020008DF020008FB
:10016000DF020008DF020008DF020008DF020008EB
:10017000DF020008DF020008DF02000800000000C4
:10018000DF020008DF020008DF020008DF020008CB
:10019000DF020008DF020008DF020008DF020008BB
:1001A000DF020008DF020008DF020008DF020008AB
:1001B000DF020008DF020008DF020008DF0200089B
:1001C000DF020008DF02000800000000DF02000874
:1001D000DF020008DF020008DF020008DF0200087B
:1001E000DF020008DF020008DF020008DF0200086B
:1001F000DF020008DF02000800F002F800F052F809
:1002000014A696E8000CB244B344DA4501D100F0DC
:1002100049F8BAE80F000FA696E83000A5EB0405F0
:1002200004EB0607AAEB0704A7F101074FEA15152F
:100230004FEA3414A4F10104AC4201D300F032F8C7
:1002400013F0010F18BFFB1A43F0010300F001F88F
:10025000DBE71847B4130000D4130000103A24BFA2
:1002600078C878C1FAD8520724BF30C830C144BF1B
:1002700004680C60704700007047000000230024F1
:1002800000250026103A28BF78C1FBD8520728BFA6
:1002900030C148BF0B6070471FB500F0E3FF1FBDC2
:1002A00010B510BD00F050F81146FFF7F5FF00F053
:1002B0009BFF00F06EF803B4FFF7F2FF03BC00F001
:1002C00075F800000948804709480047FEE7FEE747
:1002D000FEE7FEE7FEE7FEE7FEE7FEE7FEE7FEE7F6
:1002E00004480549054A064B70470000C104000850
:1002F000F9010008500100205007002050030020A1
:100300005003002010B5431C02E010F8011B71B12E
:100310008107FAD14FF0013202C88C1A8C4314EADB
:10032000C211F9D0C01A0A0603D0C01E10BDC01AEF
:1003300010BD0A0401D0801E10BD0902FCD0401E71
:1003400010BD704770477047754600F02BF8AE46F9
:1003500005006946534620F00700854618B020B5D1
:10036000FFF7BEFFBDE820404FF000064FF000074A
:100370004FF000084FF0000BAC46ACE8C009ACE809
:10038000C009ACE8C009ACE8C00921F007018D46FE
:10039000704710B50446AFF300802046BDE810401A
:1003A000FFF789BF00487047080000200149182066
:1003B000ABBEFEE726000200704700000000000010
:1003C00080B586B04FF4966000F026FE43F61441E7
:1003D000C4F20101086840F40050086040F61000C3
:1003E000C4F20200006800F400510120B0EB513F5C
:1003F00064D1FFE740F20000C2F20000006801286B
:100400001ED1FFE740F20001C2F200010491022078
:1004100005900860012000F05FF84FF47A6000F06A
:10042000FBFD41F2EE50C0F60000039000F0B0F882
:100430000398002100F06CF80499059808603CE0EE
:1004400040F20000C2F20000006802281CD1FFE761
:1004500040F20001C2F20001002002900860012079
:1004600000F03AF84FF47A6000F0D6FD41F2E55022
:10047000C0F6000000F08CF8029941F2DB50C0F6A3
:10048000000000F045F817E040F20001C2F2000160
:100490000120086000F020F84FF47A6000F0BCFD05
:1004A00041F2FC50C0F60000019000F071F8019894
:1004B000002100F02DF8FFE7FFE7FFE706B080BD61
:1004C0004EF68851CEF20001086840F470000860D2
:1004D000704700000000000080B582B08DF8070072
:1004E00041F60000C4F202000221002200F044FEA6
:1004F0009DF80700000900F0A3FD9DF8070000F03B
:100500000F0000F09DFD02B080BD00000000000063
:1005100080B584B00390029102988030C0B2FFF79A
:10052000DBFF00200190FFE7019800900398FFF7A0
:10053000E9FE0146009888420AD2FFE70398019934
:10054000405C00F009F8FFE7019801300190EBE70B
:1005500004B080BD0000000080B582B08DF80700B7
:1005600041F60000C4F202000221012200F004FE64
:100570009DF80700000900F063FD9DF8070000F0FA
:100580000F0000F05DFD02B080BD00000000000023
:1005900086B0059040F24811C2F2000100200860C8
:1005A0000490FFE704987F280CDCFFE7049A40F2F0
:1005B0006801C2F2000100208854FFE7049801306E
:1005C0000490EFE7FFE7059801780020009059B10B
:1005D000FFE740F24810C2F20000016800207829CD
:1005E000B8BF01200090FFE70098C00700283ED068
:1005F000FFE705980078C0EBC00241F27E21C0F60B
:100600000001881889580291D0F80300CDF80B003A
:1006100000200190FFE701989DF80810884215DA44
:10062000FFE7019902A80844407840F24813C2F25B
:1006300000031A68511C196040F26801C2F20001FF
:100640008854FFE7019801300190E4E740F2481137
:10065000C2F200010A68501C086040F26801C2F250
:10066000000100208854059801300590ABE706B0E2
:10067000704700000000000080B582B000200190AB
:10068000FFE7019803280CDCFFE71820FFF724FFA1
:100690004FF47A6000F0C0FCFFE701980130019050
:1006A000EFE702B080BD000082B001900020009012
:1006B000FFE7009817282CDCFFE701980099084411
:1006C00040F24811C2F200010968884214DAFFE7DB
:1006D00001980099084400280ED4FFE70198009A79
:1006E000811840F26800C2F20000405C40F2301114
:1006F000C2F20001885407E0009A40F23011C2F2C1
:10070000000100208854FFE7FFE7009801300090C7
:10071000CFE702B07047000080B582B000200190A2
:10072000FFE7019803280CDCFFE71C20FFF7D4FE4D
:100730004FF47A6000F070FCFFE7019801300190FF
:10074000EFE702B080BD000083B000208DF80B0001
:10075000FFE79DF80B00072800F34983FFE7FFE759
:1007600041F61803C4F202034FF0004018604FF442
:10077000003018604FF00051196041F21801C4F2C6
:100780000201086041F21842C4F202024FF0807088
:1007900010604FF0806018604FF0007010604FF4F0
:1007A00080000860FFE700208DF80A008DF809003E
:1007B0008DF808000190FFE70198072849DCFFE762
:1007C000019940F23010C2F20000405C9DF80B101D
:1007D000C840C00750B1FFE70199012000FA01F1BC
:1007E0009DF80A0008438DF80A00FFE7019840F2DF
:1007F0003011C2F200010844007A9DF80B10C84085
:10080000C00750B1FFE70199012000FA01F19DF8FE
:10081000090008438DF80900FFE7019840F2301104
:10082000C2F200010844007C9DF80B10C840C007CC
:1008300050B1FFE70199012000FA01F19DF808008D
:1008400008438DF80800FFE7FFE7019801300190A9
:10085000B2E7FFE79DF80A00C00740B1FFE740F2AA
:100860001841C4F202014FF40070086007E040F242
:100870001841C4F202014FF000700860FFE79DF8D4
:100880000A008007002807D5FFE740F21841C4F2AC
:1008900002014020086007E040F21841C4F2020162
:1008A0004FF480000860FFE79DF80A004007002829
:1008B00007D5FFE740F61801C4F202018020086066
:1008C00007E040F61801C4F202014FF4000008608E
:1008D000FFE79DF80A000007002806D5FFE718216A
:1008E000C4F202014020086006E01821C4F20201AF
:1008F0004FF480000860FFE79DF80A00C00600285A
:1009000007D5FFE71821C4F202014FF40070086018
:1009100006E01821C4F202014FF000700860FFE702
:100920009DF80A008006002806D5FFE71821C4F2CA
:1009300002012020086006E01821C4F202014FF4F1
:1009400000100860FFE79DF80A004006002808D55F
:10095000FFE740F21841C4F202014FF480700860D2
:1009600007E040F21841C4F202014FF080700860C5
:10097000FFE79DF80A000006002808D5FFE740F6CB
:100980001801C4F202014FF40070086007E040F65D
:100990001801C4F202014FF000700860FFE7FFE7A2
:1009A000FFE79DF80900C00738B1FFE71821C4F23E
:1009B00002014FF48060086006E01821C4F20201D1
:1009C0004FF080600860FFE79DF80900800700286D
:1009D00006D5FFE71821C4F202011020086006E0E6
:1009E0001821C4F202014FF480100860FFE79DF85F
:1009F00009004007002807D5FFE741F61801C4F2B7
:100A000002010820086007E041F61801C4F2020163
:100A10004FF400200860FFE79DF809000007002858
:100A200008D5FFE740F61841C4F202014FF4005028
:100A3000086007E040F61841C4F202014FF0005090
:100A40000860FFE79DF80900C006002807D5FFE70A
:100A500040F61801C4F202010120086007E040F6E8
:100A60001801C4F202014FF480300860FFE79DF8DE
:100A700009008006002806D5FFE71821C4F202010C
:100A80000820086006E01821C4F202014FF400209B
:100A90000860FFE79DF809004006002807D5FFE73A
:100AA00040F21841C4F202012020086007E040F241
:100AB0001841C4F202014FF400100860FFE79DF8EE
:100AC00009000006002808D5FFE740F21841C4F2EB
:100AD00002014FF48060086007E040F21841C4F260
:100AE00002014FF080600860FFE7FFE7FFE79DF835
:100AF0000800C00740B1FFE741F21841C4F202010B
:100B00004FF48050086007E041F21841C4F202013E
:100B10004FF080500860FFE79DF80800800700282C
:100B200008D5FFE741F21841C4F202014FF400502A
:100B3000086007E041F21841C4F202014FF0005092
:100B40000860FFE79DF808004007002808D5FFE788
:100B500041F61801C4F202014FF48040086007E03A
:100B600041F61801C4F202014FF080400860FFE72F
:100B70009DF808000007002808D5FFE740F6184157
:100B8000C4F202014FF48060086007E040F61841AB
:100B9000C4F202014FF080600860FFE79DF8080092
:100BA000C006002807D5FFE741F61801C4F202018C
:100BB0001020086007E041F61801C4F202014FF46A
:100BC00080100860FFE79DF808008006002807D520
:100BD000FFE741F61801C4F202018020086007E037
:100BE00041F61801C4F202014FF400000860FFE76B
:100BF0009DF808004006002808D5FFE741F21801DB
:100C0000C4F202014FF40050086007E041F21801FD
:100C1000C4F202014FF000500860FFE79DF80800A1
:100C20000006002808D5FFE741F21801C4F20201CE
:100C30004FF40040086007E041F21801C4F20201DD
:100C40004FF000400860FFE7FFE7FFE79DF80B105B
:100C500001208840C00740B1FFE741F61801C4F207
:100C600002014FF40040086007E041F61801C4F2A9
:100C700002014FF000400860FFE79DF80B100120D3
:100C800088408007002807D5FFE741F61801C4F225
:100C900002010220086007E041F61801C4F20201D7
:100CA0004FF400300860FFE79DF80B1001208840EA
:100CB0004007002808D5FFE741F61801C4F20201F9
:100CC0004FF40050086007E041F61801C4F2020139
:100CD0004FF000500860FFE79DF80B10012088409E
:100CE0000007002807D5FFE741F21801C4F202010E
:100CF0000220086007E041F21801C4F202014FF43B
:100D000000300860FFE79DF80B1001208840C00606
:100D1000002808D5FFE741F21841C4F202014FF460
:100D20008070086007E041F21841C4F202014FF000
:100D300080700860FFE79DF80B1001208840800656
:100D4000002808D5FFE741F61801C4F202014FF46C
:100D50008060086007E041F61801C4F202014FF01C
:100D600080600860FFE79DF80B1001208840400676
:100D7000002808D5FFE741F21841C4F202014FF400
:100D80000070086007E041F21841C4F202014FF020
:100D900000700860FFE79DF80B10012088400006F6
:100DA000002807D5FFE741F21801C4F202014020F4
:100DB000086007E041F21801C4F202014FF480001C
:100DC0000860FFE7FFE700200090FFE70098B0F51C
:100DD000C87F05DAFFE7FFE7009801300090F5E7EC
:100DE000FFE79DF80B0001308DF80B00B1E403B074
:100DF000704700000000000080B543F63001C4F2E7
:100E00000201086840F07F00086043F64401C4F224
:100E10000201086840F4804008600021C4F2020129
:100E2000086845F25552C0F255121043086040F26E
:100E30000041C4F20201086840F05530086040F6F5
:100E40000003C4F202034FF05530186040F6004131
:100E5000C4F20201086041F20001C4F2020108601C
:100E600041F20041C4F20201086041F60001C4F2FF
:100E7000020108600421C4F2020108680020086031
:100E800040F20441C4F202010A68086040F604011D
:100E9000C4F202010A68086040F60441C4F202018B
:100EA0000A68086041F20401C4F202010A6808609D
:100EB00041F20441C4F202010A68086041F60401EB
:100EC000C4F202010A6808600822C4F202024FF06C
:100ED000FF31116040F20842C4F20202116040F694
:100EE0000802C4F20202116040F6084CC4F2020C7F
:100EF000CCF8001041F2080CC4F2020CCCF800103F
:100F000041F2084CC4F2020CCCF8001041F6080C77
:100F1000C4F2020CCCF800100C21C4F202010860EB
:100F200040F20C41C4F20201086040F60C01C4F228
:100F30000201086040F60C4CC4F2020CCCF8000030
:100F400041F20C0CC4F2020CCCF8000041F20C4C43
:100F5000C4F2020CCCF8000041F60C0CC4F2020CF6
:100F6000CCF8000040F2140CC4F2020CCCF80000E3
:100F700040F2144CC4F2020CCCF8000040F6140C01
:100F8000C4F2020CCCF8000040F6144CC4F2020C7F
:100F9000CCF8000041F2140CC4F2020CCCF80000B2
:100FA00041F2144CC4F2020CCCF8000041F6140CCF
:100FB000C4F2020CCCF80000186820F04060186001
:100FC000106840F040601060086820F040600860E1
:100FD000086840F00060086043F61401C4F20101A3
:100FE000086820F0F0000860086840F02000086001
:100FF00043F60041C4F20101086840F40050086063
:1010000043F60841C4F20101086840F4005008604A
:10101000282000F0D1F880BD82B00190002000901F
:10102000FFE700980199884205D2FFE7FFE70098A3
:1010300001300090F5E702B07047000000000000AA
:1010400080B584B08DF80F0041F21801C4F202019E
:101050004FF40020086041F21841C4F202014FF43D
:10106000802008604FF4003008604FF48030086042
:101070009DF80F00C00738B1FFE741F21801C4F234
:10108000020108200860FFE79DF80F008007002894
:1010900007D5FFE741F21841C4F2020104200860BD
:1010A000FFE79DF80F004007002807D5FFE741F252
:1010B0001841C4F2020102200860FFE79DF80F000A
:1010C0000007002807D5FFE741F21841C4F20201EA
:1010D00001200860FFE74FF4C8700290FFF79CFF03
:1010E00040F60040C4F20200009004210191012268
:1010F00000F042F80298FFF78FFF00980199002254
:1011000000F03AF80298FFF787FF04B080BD0000B6
:1011100080B584B049F640400390FFF77DFF03207F
:101120000190FFF78DFF4FF4FA50FFF775FF01981C
:10113000FFF786FF4FF47A600290FFF76DFF01988A
:10114000FFF77EFF0298FFF767FF0220FFF778FFA7
:101150000298FFF761FF2820FFF7BEF90620FFF78E
:10116000BBF90F20FFF7B8F90120FFF7B5F9039895
:10117000FFF752FF04B080BD82B00190ADF80210BD
:101180008DF801209DF80100C00738B1FFE7BDF8D8
:101190000210012088400199886108E0BDF8020032
:1011A00000F110010120884001998861FFE702B039
:1011B000704700000000000081B08DF803009DF929
:1011C000030000280ED4FFE79DF9031001F01F0271
:1011D000012090404A094EF20011CEF2000141F880
:1011E0002200FFE701B0704780B586B00020019073
:1011F0000590FFF701FEFFF78BFF019941F2EE50DA
:10120000C0F600000290FFF783F9FFF785FAFFF7B9
:1012100033FA0298FFF7BCF96FF017000490FFE76C
:101220000498FFF741FA00200390FFE7039827286E
:1012300007DCFFE7FFF788FAFFE703980130039028
:10124000F4E7049801300490049840F24811C2F287
:1012500000010968884204DDFFE76FF01700049081
:10126000FFE7DDE7F1EE100A4FF6FF71C0F2C03183
:1012700020EA010040F04070E1EE100A70470000E3
:10128000000000000000000000000000000000005E
:10129000000000000000000000000000000000004E
:1012A000000000000000000000000000000000003E
:1012B000000000000000000000000000000000002E
:1012C000000000000000000000000000000000001E
:1012D000000000000000000000000000000000000E
:1012E00000000000000000000000000000000000FE
:1012F00000000000000000000000000000000000EE
:1013000000000000000000000000000000000000DD
:1013100000000000000000000000000000000000CD
:1013200000000000000000000000000000000000BD
:1013300000000000000000000000000000000000AD
:10134000000000000000000000000000000000009D
:10135000000000000000000000000000000000008D
:10136000000000000000000000000000000000007D
:10137000000000000000000000000000000000006D
:10138000000000000000000000000000000000005D
:10139000000000000000000000000000000000004D
:1013A000000000000000000000000000000000003D
:1013B000000000000000000000000000000000002D
:1013C0000000000000000000000000000000041EFB
:1013D00021211E00000524223F2020000522312962
:1013E00026200005212525251A0005070404043FB1
:1013F0000005272525251900051E2525251800058A
:10140000211109050300051A2525251A00050609DD
:1014100009093E0001280000000000000000000053
:1014200000000000000000000000000000000000BC
:1014300000000000000000000000000000000000AC
:101440000000000000053E3F09093E00053F3F2522
:10145000251A00051E3F21212100053F3F21211EA5
:1014600000053F3F25252500053F3F0505010005F7
:101470001E3F21291900053F3F04043F0005213F7D
:101480003F2121000511213F1F0100053F3F0C12A4
:101490002100053F3F20202000053F0204023F00BD
:1014A000053F060C183F00051E3F21211E00053F89
:1014B0003F09090600061E3F21293E10053F3F094E
:1014C00019260005262F2D3D19000601013F3F0179
:1014D00001051F3F20201F00050F1F30201F0006A1
:1014E0003F3F1008103F0623170E1C3A3105030733
:1014F0003C3C03000531392D27230000000000008B
:1015000000000000000000000000000000000000DB
:1015100000000000000000000000000000000000CB
:101520000000000000051824243C2000043F24246F
:1015300018000004182424240000041824243F0068
:101540000004182C2C2C000004F8242404000004AF
:1015500098A4A47C0000043F04043C0000013D006A
:10156000000000000280FD00000000043F08142479
:101570000000013F0000000000053C043C0438006E
:10158000043C04043800000418242418000004FC5F
:10159000242418000004182424FC0000043C08043F
:1015A00004000004283C3434000003083F08000015
:1015B00000041C20203C0000041020100C0000053A
:1015C0003C203C201C0004241818240000049CA08B
:1015D000A0FC00000424342C2400004C656F6E2015
:1015E00058494949004C656F6E20584949004734B5
:1015F000332053414E204D4154454F005465727283
:1016000065726F73000000002816000800000020BB
:10161000040000005C0200082C16000808000020EE
:0C162000480700007C02000802000000E7
:04000005080002C528
:00000001FF
