:020000040800F2
:1000000060060020A9020008B1020008B30200083F
:10001000B5020008B7020008B9020008000000009D
:10002000000000000000000000000000BB0200080B
:10003000BD02000800000000BF020008C102000865
:10004000C3020008C3020008C3020008C30200087C
:10005000C3020008C3020008C3020008C30200086C
:10006000C3020008C3020008C3020008C30200085C
:10007000C3020008C3020008C3020008C30200084C
:10008000C3020008C3020008C3020008C30200083C
:10009000C3020008C3020008C3020008C30200082C
:1000A000C3020008C3020008C3020008C30200081C
:1000B000C3020008C3020008C3020008C30200080C
:1000C000C3020008C3020008C3020008C3020008FC
:1000D000C3020008C3020008C3020008C3020008EC
:1000E000C3020008C3020008C3020008C3020008DC
:1000F000C3020008C3020008C3020008C3020008CC
:10010000C3020008C3020008C3020008C3020008BB
:10011000C3020008C3020008C3020008C3020008AB
:10012000C3020008C3020008C3020008C30200089B
:10013000C3020008C3020008C3020008C30200088B
:10014000C3020008C3020008C3020008C30200087B
:10015000C3020008C3020008C3020008C30200086B
:10016000C3020008C3020008C3020008C30200085B
:10017000C3020008C3020008C30200080000000018
:10018000C3020008C3020008C3020008C30200083B
:10019000C3020008C3020008C3020008C30200082B
:1001A000C3020008C3020008C3020008C30200081B
:1001B000C3020008C3020008C3020008C30200080B
:1001C000C3020008C302000800000000C3020008C8
:1001D000C3020008C3020008C3020008C3020008EB
:1001E000C3020008C3020008C3020008C3020008DB
:1001F000C3020008C302000800F002F800F044F84F
:1002000014A696E8000CB244B344DA4501D100F0DC
:100210003BF8BAE80F000FA696E83000A5EB0405FE
:1002200004EB0607AAEB0704A7F101074FEA15152F
:100230004FEA3414A4F10104AC4201D300F024F8D5
:1002400013F0010F18BFFB1A43F0010300F001F88F
:10025000DBE718478C0C00009C0C00007047000086
:100260000023002400250026103A28BF78C1FBD8BF
:10027000520728BF30C148BF0B6070471FB500F060
:1002800072FC1FBD10B510BD00F031F81146FFF72C
:10029000F5FF00F051F900F04FF803B4FFF7F2FF5B
:1002A00003BC00F057F800000948804709480047A0
:1002B000FEE7FEE7FEE7FEE7FEE7FEE7FEE7FEE716
:1002C000FEE7FEE704480549054A064B7047000073
:1002D00069030008F90100086000002060060020A2
:1002E000600200206002002070477047704775462A
:1002F00000F02CF8AE4605006946534620F0070092
:10030000854618B020B5FFF7DDFFBDE820404FF06F
:1003100000064FF000074FF000084FF0000BAC460E
:10032000ACE8C009ACE8C009ACE8C009ACE8C00959
:1003300021F007018D46704710B50446AFF30080E9
:100340002046BDE81040FFF7A8BF000000487047F6
:100350000000002001491820ABBEFEE72600020085
:1003600070470000000000004EF68851CEF20001F8
:10037000086840F47000086070470000000000004A
:1003800043F63001C4F20201086840F07F000860C3
:100390000021C4F20201086845F25552C0F255121C
:1003A0001043086040F20041C4F20201086840F0C6
:1003B0005530086040F60001C4F202014FF055309C
:1003C000086040F60041C4F20201086041F20001F9
:1003D000C4F20201086041F20041C4F20201086067
:1003E00041F60001C4F2020108600421C4F20201D6
:1003F00008680020086040F20441C4F202010A6863
:10040000086040F60401C4F202010A68086040F680
:100410000441C4F202010A68086041F20401C4F216
:1004200002010A68086041F20441C4F202010A684C
:10043000086041F60401C4F202010A68086008225B
:10044000C4F202024FF0FF31116040F20842C4F2E0
:100450000202116040F60802C4F20202116040F686
:100460000842C4F20202116041F20802C4F2020220
:10047000116041F20842C4F20202116041F6080222
:10048000C4F2020211600C21C4F20201086040F2C1
:100490000C41C4F20201086040F60C01C4F20201F2
:1004A000086040F60C41C4F20201086041F20C0100
:1004B000C4F20201086041F20C41C4F2020108607A
:1004C00041F60C01C4F2020108601421C4F20201D9
:1004D000086040F21441C4F20201086040F61401C1
:1004E000C4F20201086040F61441C4F2020108603F
:1004F00041F21401C4F20201086041F21441C4F255
:100500000201086041F61401C4F20201086070475C
:1005100082B0019000200090FFE700980199884286
:1005200005D2FFE7FFE7009801300090F5E702B041
:10053000704700000000000080B586B000200090E9
:100540000590FFF71DFF009869218DF813100390A7
:100550000290FFE700200190FFE701989DF813103B
:10056000C1EBC10240F68031C0F60001895C8842CF
:1005700080F2E082FFE7FFE79DF81300C0EBC001C7
:1005800040F68030C0F600000844019908444078E5
:10059000C00740B1FFE741F61801C4F202014FF471
:1005A0000040086007E041F61801C4F202014FF074
:1005B00000400860FFE79DF81300C0EBC00140F663
:1005C0008030C0F600000844019908444078800754
:1005D000002807D5FFE741F61801C4F20201022006
:1005E000086007E041F61801C4F202014FF4003040
:1005F0000860FFE79DF81300C0EBC00140F68030B3
:10060000C0F60000084401990844407840070028DB
:1006100008D5FFE741F61801C4F202014FF400507B
:10062000086007E041F61801C4F202014FF00050E3
:100630000860FFE79DF81300C0EBC00140F6803072
:10064000C0F60000084401990844407800070028DB
:1006500007D5FFE741F21801C4F202010220086049
:1006600007E041F21801C4F202014FF400300860C3
:10067000FFE79DF81300C0EBC00140F68030C0F6E4
:1006800000000844019908444078C006002808D5B5
:10069000FFE741F21841C4F202014FF48070086094
:1006A00007E041F21841C4F202014FF08070086087
:1006B000FFE79DF81300C0EBC00140F68030C0F6A4
:1006C000000008440199084440788006002808D5B5
:1006D000FFE741F61801C4F202014FF480600860A0
:1006E00007E041F61801C4F202014FF08060086093
:1006F000FFE79DF81300C0EBC00140F68030C0F664
:10070000000008440199084440784006002808D5B4
:10071000FFE741F21841C4F202014FF40070086093
:1007200007E041F21841C4F202014FF00070086086
:10073000FFE79DF81300C0EBC00140F68030C0F623
:10074000000008440199084440780006002807D5B5
:10075000FFE741F21801C4F202014020086007E0FF
:1007600041F21801C4F202014FF480000860FFE773
:10077000FFE7FFE701990120884003998840C007FF
:1007800038B1FFE71821C4F202014FF4806008601D
:1007900006E01821C4F202014FF080600860FFE714
:1007A000019901208840039988408007002806D5D8
:1007B000FFE71821C4F202011020086006E01821AA
:1007C000C4F202014FF480100860FFE70199012094
:1007D0008840039988404007002807D5FFE740F28A
:1007E0001841C4F202010120086007E040F21841FC
:1007F000C4F202014FF480300860FFE70199012044
:100800008840039988400007002808D5FFE740F694
:100810001841C4F202014FF40050086007E040F6AE
:100820001841C4F202014FF000500860FFE701993F
:100830000120884003998840C006002807D5FFE7BB
:1008400040F61801C4F202010120086007E040F6FA
:100850001801C4F202014FF480300860FFE70199EB
:1008600001208840039988408006002806D5FFE7CC
:100870001821C4F202010820086006E01821C4F221
:1008800002014FF400200860FFE701990120884031
:10089000039988404006002807D5FFE740F2184139
:1008A000C4F202012020086007E040F21841C4F2BF
:1008B00002014FF400100860FFE701990120884011
:1008C000039988400006002808D5FFE740F2184148
:1008D000C4F202014FF48060086007E040F2184162
:1008E000C4F202014FF080600860FFE7FFE7FFE716
:1008F00001990120884003998840000AC00740B14F
:10090000FFE741F21841C4F202014FF48050086041
:1009100007E041F21841C4F202014FF08050086034
:10092000FFE701990120884003998840000A800769
:10093000002808D5FFE741F21841C4F202014FF444
:100940000050086007E041F21841C4F202014FF084
:1009500000500860FFE70199012088400399884012
:10096000000A4007002808D5FFE741F61801C4F245
:1009700002014FF48040086007E041F61801C4F21C
:1009800002014FF080400860FFE701990120884094
:1009900003998840000A0007002808D5FFE740F6C1
:1009A0001841C4F202014FF48060086007E040F68D
:1009B0001841C4F202014FF080600860FFE701991E
:1009C0000120884003998840000AC006002807D506
:1009D000FFE741F61801C4F202011020086007E0A9
:1009E00041F61801C4F202014FF480100860FFE7DD
:1009F00001990120884003998840000A8006002858
:100A000007D5FFE741F61801C4F202018020086013
:100A100007E041F61801C4F202014FF4000008603B
:100A2000FFE701990120884003998840000A4006A9
:100A3000002808D5FFE741F21801C4F202014FF483
:100A40000050086007E041F21801C4F202014FF0C3
:100A500000500860FFE70199012088400399884011
:100A6000000A0006002808D5FFE741F21801C4F289
:100A700002014FF40040086007E041F21801C4F29F
:100A800002014FF000400860FFE7FFE73220FFF768
:100A90003FFDFFE741F61803C4F202034FF00040A8
:100AA00018604FF4003018604FF00051196041F2A7
:100AB0001801C4F20201086041F21842C4F20202B5
:100AC0004FF0807010604FF0806018604FF0007041
:100AD00010604FF480000860FFE7FFE741F2184123
:100AE000C4F202014FF0805008604FF000500860DF
:100AF00041F61802C4F202024FF08041116040F644
:100B00001843C4F202034FF0806119604FF4801162
:100B100011604FF40001116041F21801C4F20201AA
:100B200008604FF000400860FFE7FFE701980130E0
:100B3000019012E5029842F2117188420EDBFFE744
:100B40000020029003980F2804DCFFE7039801308F
:100B5000039002E000200390FFE703E002980130D9
:100B60000290FFE7F6E4F1EE100A4FF6FF71C0F2D3
:100B7000C03120EA010040F04070E1EE100A7047F9
:100B80000000000000000000000000000000000065
:100B90000000000000000000000000000000000055
:100BA0000000000000000000000000000000000045
:100BB0000000000000000000000000000000000035
:100BC0000000000000000000000000000000000025
:100BD0000000000000000000000000000000000015
:100BE0000000000000000000000000000000000005
:100BF00000000000000000000000000000000000F5
:100C000000000000000000000000000000000000E4
:100C100000000000000000000000000000000000D4
:100C200000000000000000000000000000000000C4
:100C300000000000000000000000000000000000B4
:100C400000000000000000000000000000000000A4
:100C50000000000000000000000000000000000094
:100C60000000000000000000000000000000000084
:100C70000000000000000000000000000000000074
:100C80000000000000000000000000000000000064
:100C90000000000000000000000000000000000054
:100CA0000000000000000000000000000000000044
:100CB0000000000000000000000000000000000034
:100CC0000000000000000000000000000000000024
:100CD0000000000000000000000000000000000014
:100CE0000000000000000000000000000000000004
:100CF00000000000000000000000000000000000F4
:100D000000000000000000000000000000000000E3
:100D100000000000000001280000000000000000AA
:100D200000000000000000000000000000000000C3
:100D300000000000000000000000000000000000B3
:100D400000000000000000053E3F09093E00053F8D
:100D50003F25251A00051E3F21212100053F3F2187
:100D6000211E00053F3F25252500053F3F050501C4
:100D700000051E3F21291900053F3F04043F0005DF
:100D8000213F3F2121000511213F1F0100053F3F69
:100D90000C122100053F3F20202000053F020402E5
:100DA0003F00053F060C183F00051E3F21211E0095
:100DB000053F3F09090600061E3F21293E10053F59
:100DC0003F0919260005262F2D3D19000601013F78
:100DD0003F0101051F3F20201F00050F1F30201F6E
:100DE00000063F3F1008103F0623170E1C3A31053E
:100DF00003073C3C03000531392D27230000000088
:100E000000000000000000000000000000000000E2
:100E100000000000000000000000000000000000D2
:100E200000000000000000051824243C2000043FBE
:100E30002424180000041824242400000418242466
:100E40003F000004182C2C2C000004F8242404007B
:100E5000000498A4A47C0000043F04043C000001AA
:100E60003D00000000000280FD00000000043F087B
:100E700014240000013F0000000000053C043C0475
:100E80003800043C0404380000041824241800002E
:100E900004FC242418000004182424FC0000043C52
:100EA000080404000004283C3434000003083F0810
:100EB000000000041C20203C0000041020100C0046
:100EC00000053C203C201C000424181824000004C9
:100ED0009CA0A0FC00000424342C2400000000008E
:100EE000F00E00080000002060060000600200080C
:04000005080002A944
:00000001FF
