:020000040800F2
:1000000048070020A9020008B1020008B302000856
:10001000B5020008B7020008B9020008000000009D
:10002000000000000000000000000000BB0200080B
:10003000BD02000800000000BF020008C102000865
:10004000C3020008C3020008C3020008C30200087C
:10005000C3020008C3020008C3020008C30200086C
:10006000C3020008C3020008C3020008C30200085C
:10007000C3020008C3020008C3020008C30200084C
:10008000C3020008C3020008C3020008C30200083C
:10009000C3020008C3020008C3020008C30200082C
:1000A000C3020008C3020008C3020008C30200081C
:1000B000C3020008C3020008C3020008C30200080C
:1000C000C3020008C3020008C3020008C3020008FC
:1000D000C3020008C3020008C3020008C3020008EC
:1000E00069030008C3020008C3020008C302000835
:1000F000C3020008C3020008C3020008C3020008CC
:10010000C3020008C3020008C3020008C3020008BB
:10011000C3020008C3020008C3020008C3020008AB
:10012000C3020008C3020008C3020008C30200089B
:10013000C3020008C3020008C3020008C30200088B
:10014000C3020008C3020008C3020008C30200087B
:10015000C3020008C3020008C3020008C30200086B
:10016000C3020008C3020008C3020008C30200085B
:10017000C3020008C3020008C30200080000000018
:10018000C3020008C3020008C3020008C30200083B
:10019000C3020008C3020008C3020008C30200082B
:1001A000C3020008C3020008C3020008C30200081B
:1001B000C3020008C3020008C3020008C30200080B
:1001C000C3020008C302000800000000C3020008C8
:1001D000C3020008C3020008C3020008C3020008EB
:1001E000C3020008C3020008C3020008C3020008DB
:1001F000C3020008C302000800F002F800F044F84F
:1002000014A696E8000CB244B344DA4501D100F0DC
:100210003BF8BAE80F000FA696E83000A5EB0405FE
:1002200004EB0607AAEB0704A7F101074FEA15152F
:100230004FEA3414A4F10104AC4201D300F024F8D5
:1002400013F0010F18BFFB1A43F0010300F001F88F
:10025000DBE71847C8120000D81200007047000002
:100260000023002400250026103A28BF78C1FBD8BF
:10027000520728BF30C148BF0B6070471FB500F060
:1002800074FF1FBD10B510BD00F031F81146FFF727
:10029000F5FF00F029FF00F04FF803B4FFF7F2FF7D
:1002A00003BC00F057F800000948804709480047A0
:1002B000FEE7FEE7FEE7FEE7FEE7FEE7FEE7FEE716
:1002C000FEE7FEE704480549054A064B7047000073
:1002D000E1030008F9010008480100204807002058
:1002E0004803002048030020704770477047754658
:1002F00000F02CF8AE4605006946534620F0070092
:10030000854618B020B5FFF7DDFFBDE820404FF06F
:1003100000064FF000074FF000084FF0000BAC460E
:10032000ACE8C009ACE8C009ACE8C009ACE8C00959
:1003300021F007018D46704710B50446AFF30080E9
:100340002046BDE81040FFF7A8BF000000487047F6
:100350000000002001491820ABBEFEE72600020085
:10036000704700000000000080B543F61441C4F25D
:100370000101086840F40050086040F61000C4F223
:100380000200006800F400510120B0EB513F23D17E
:10039000FFE740F26000C2F20000006801280DD1C2
:1003A000FFE741F20450C0F6000000F015F940F2FA
:1003B0006001C2F20001002008600CE041F2E1405F
:1003C000C0F6000000F008F940F26001C2F200013E
:1003D00001200860FFE7FFE780BD0000000000008B
:1003E0004EF68851CEF20001086840F470000860B3
:1003F000704700000000000080B582B08DF8070053
:1004000041F61801C4F202014FF4802008609DF803
:100410000700000900F08CF99DF8070000F00F00BC
:1004200000F086F900200090FFE7009848F29F61F5
:10043000C0F20101884205DCFFE7FFE700980130C8
:100440000090F2E702B080BD80B586B00020059034
:10045000FFE705984EF2BF11C0F2E401884205DCC7
:10046000FFE7FFE7059801300590F2E7032000F071
:100470005FF900200490FFE7049844F23F21C0F2A6
:100480000F01884205DCFFE7FFE704980130049084
:10049000F2E7032000F04CF900200390FFE70398F7
:1004A0004AF21F11C0F20701884205DCFFE7FFE7AF
:1004B000039801300390F2E7032000F039F900209F
:1004C0000290FFE702984AF21F11C0F2070188422A
:1004D00005DCFFE7FFE7029801300290F2E7022017
:1004E00000F026F900200190FFE701984AF21F1161
:1004F000C0F20701884205DCFFE7FFE70198013001
:100500000190F2E72820FFF777FF0C20FFF774FF38
:100510000120FFF771FF00200090FFE7009840F6F0
:10052000FF01C0F23D01884205DCFFE7FFE70098CC
:1005300001300090F2E70620FFF75EFF06B080BDB5
:1005400043F63001C4F20201086840F07F00086001
:1005500041F20001C4F20201086840F488600860BA
:1005600041F20041C4F20201086840F00500086051
:1005700040F60041C4F20201086840F4807008604F
:1005800041F60001C4F20201086840F01000086062
:1005900041F20801C4F20201086840F48860086072
:1005A00041F20841C4F20201086840F00500086009
:1005B00040F60841C4F20201086840F48070086007
:1005C00041F60801C4F20201086840F0100008601A
:1005D000704700000000000086B0059040F2441112
:1005E000C2F20001002008600490FFE704987F2811
:1005F0000CDCFFE7049A40F26401C2F20001002023
:100600008854FFE7049801300490EFE7FFE705986E
:1006100001780020009059B1FFE740F24410C2F287
:100620000000016800207829B8BF01200090FFE792
:100630000098C00700283ED0FFE705980078C0EB7F
:10064000C00241F28411C0F6000188188958029155
:10065000D0F80300CDF80B0000200190FFE70198CF
:100660009DF80810884215DAFFE7019902A80844AE
:10067000407840F24413C2F200031A68511C19601A
:1006800040F26401C2F200018854FFE70198013092
:100690000190E4E740F24411C2F200010A68501CE4
:1006A000086040F26401C2F20001002088540598FD
:1006B00001300590ABE706B0704700000000000075
:1006C00082B0019000200090FFE7009817282CDCF2
:1006D000FFE701980099084440F24411C2F200017A
:1006E0000968884214DAFFE7019800990844002855
:1006F0000ED4FFE70198009A811840F26400C2F21C
:100700000000405C40F22C11C2F20001885407E066
:10071000009A40F22C11C2F2000100208854FFE739
:10072000FFE7009801300090CFE702B0704700006B
:1007300084B08DF80F0041F21801C4F202014FF4A9
:100740002010086041F21841C4F202014FF4403019
:1007500008609DF80F00C00738B1FFE741F21801AB
:10076000C4F2020108200860FFE79DF80F0080072F
:10077000002807D5FFE741F21801C4F2020120204A
:100780000860FFE79DF80F004007002807D5FFE746
:1007900041F21841C4F2020102200860FFE79DF80F
:1007A0000F000007002807D5FFE741F21841C4F207
:1007B000020101200860FFE700200290FFE7029895
:1007C00041F28731884205DCFFE7FFE702980130FC
:1007D0000290F4E740F61841C4F2020110200860CC
:1007E00000200190FFE7019843F69721884205DC3D
:1007F000FFE7FFE7019801300190F4E740F6184168
:10080000C4F202014FF48010086000200090FFE75E
:10081000009841F28731884205DCFFE7FFE7009846
:1008200001300090F4E704B07047000000000000C1
:1008300083B000208DF80B00FFE79DF80B00072820
:1008400000F34883FFE7FFE741F61803C4F2020311
:100850004FF0004018604FF4003018604FF0005126
:10086000196041F21801C4F20201086041F2184215
:10087000C4F202024FF0807010604FF08060186088
:100880004FF0007010604FF480000860FFE7002018
:100890008DF80A008DF809008DF808000190FFE737
:1008A0000198072849DCFFE7019940F22C10C2F2B9
:1008B0000000405C9DF80B10C840C00750B1FFE736
:1008C0000199012000FA01F19DF80A0008438DF812
:1008D0000A00FFE7019840F22C11C2F2000108441F
:1008E000007A9DF80B10C840C00750B1FFE701998E
:1008F000012000FA01F19DF8090008438DF8090074
:10090000FFE7019840F22C11C2F200010844007C7C
:100910009DF80B10C840C00750B1FFE701990120B6
:1009200000FA01F19DF8080008438DF80800FFE780
:10093000FFE7019801300190B2E7FFE79DF80A0058
:10094000C00740B1FFE740F21841C4F202014FF482
:100950000070086007E040F21841C4F202014FF055
:1009600000700860FFE79DF80A008007002807D59F
:10097000FFE740F21841C4F202014020086007E09E
:1009800040F21841C4F202014FF480000860FFE712
:100990009DF80A004007002807D5FFE740F6180138
:1009A000C4F202018020086007E040F61801C4F29A
:1009B00002014FF400000860FFE79DF80A000007FD
:1009C000002806D5FFE71821C4F202014020086084
:1009D00006E01821C4F202014FF480000860FFE72E
:1009E0009DF80A00C006002807D5FFE71821C4F2C9
:1009F00002014FF40070086006E01821C4F2020101
:100A00004FF000700860FFE79DF80A00800600289C
:100A100006D5FFE71821C4F202012020086006E095
:100A20001821C4F202014FF400100860FFE79DF89E
:100A30000A004006002808D5FFE740F21841C4F23A
:100A400002014FF48070086007E040F21841C4F2E0
:100A500002014FF080700860FFE79DF80A00000671
:100A6000002808D5FFE740F61801C4F202014FF450
:100A70000070086007E040F61801C4F202014FF070
:100A800000700860FFE7FFE7FFE79DF80900C00777
:100A900038B1FFE71821C4F202014FF4806008600A
:100AA00006E01821C4F202014FF080600860FFE701
:100AB0009DF809008007002806D5FFE71821C4F239
:100AC00002011020086006E01821C4F202014FF470
:100AD00080100860FFE79DF809004007002807D54F
:100AE000FFE740F21841C4F202010120086007E06C
:100AF00040F21841C4F202014FF480300860FFE771
:100B00009DF809000007002808D5FFE740F61841C6
:100B1000C4F202014FF40050086007E040F61841AB
:100B2000C4F202014FF000500860FFE79DF8090091
:100B3000C006002807D5FFE740F61801C4F20201FD
:100B40000120086007E040F61801C4F202014FF4EA
:100B500080300860FFE79DF809008006002806D570
:100B6000FFE71821C4F202010820086006E01821FE
:100B7000C4F202014FF400200860FFE79DF809006D
:100B80004006002807D5FFE740F21841C4F20201F1
:100B90002020086007E040F21841C4F202014FF43F
:100BA00000100860FFE79DF809000006002808D53E
:100BB000FFE740F21841C4F202014FF48060086080
:100BC00007E040F21841C4F202014FF08060086073
:100BD000FFE7FFE7FFE79DF80800C00740B1FFE728
:100BE00041F21841C4F202014FF48050086007E05E
:100BF00041F21841C4F202014FF080500860FFE753
:100C00009DF808008007002808D5FFE741F2184149
:100C1000C4F202014FF40050086007E041F21841AD
:100C2000C4F202014FF000500860FFE79DF8080091
:100C30004007002808D5FFE741F61801C4F2020179
:100C40004FF48040086007E041F61801C4F2020149
:100C50004FF080400860FFE79DF80800000700287B
:100C600008D5FFE740F61841C4F202014FF4806056
:100C7000086007E040F61841C4F202014FF08060BE
:100C80000860FFE79DF80800C006002807D5FFE7C9
:100C900041F61801C4F202011020086007E041F695
:100CA0001801C4F202014FF480100860FFE79DF8BC
:100CB00008008006002807D5FFE741F61801C4F2B6
:100CC00002018020086007E041F61801C4F2020129
:100CD0004FF400000860FFE79DF808004006002878
:100CE00008D5FFE741F21801C4F202014FF40050A9
:100CF000086007E041F21801C4F202014FF0005011
:100D00000860FFE79DF808000006002808D5FFE707
:100D100041F21801C4F202014FF40040086007E0FC
:100D200041F21801C4F202014FF000400860FFE7F1
:100D3000FFE7FFE79DF80B1001208840C00740B196
:100D4000FFE741F61801C4F202014FF400400860C9
:100D500007E041F61801C4F202014FF000400860BC
:100D6000FFE79DF80B10012088408007002807D579
:100D7000FFE741F61801C4F202010220086007E013
:100D800041F61801C4F202014FF400300860FFE799
:100D90009DF80B10012088404007002808D5FFE788
:100DA00041F61801C4F202014FF40050086007E058
:100DB00041F61801C4F202014FF000500860FFE74D
:100DC0009DF80B10012088400007002807D5FFE799
:100DD00041F21801C4F202010220086007E041F26A
:100DE0001801C4F202014FF400300860FFE79DF8DB
:100DF0000B1001208840C006002808D5FFE741F20B
:100E00001841C4F202014FF48070086007E041F21B
:100E10001841C4F202014FF080700860FFE79DF8AE
:100E20000B10012088408006002808D5FFE741F616
:100E30001801C4F202014FF48060086007E041F637
:100E40001801C4F202014FF080600860FFE79DF8CE
:100E50000B10012088404006002808D5FFE741F22A
:100E60001841C4F202014FF40070086007E041F23B
:100E70001841C4F202014FF000700860FFE79DF8CE
:100E80000B10012088400006002807D5FFE741F23B
:100E90001801C4F202014020086007E041F2180185
:100EA000C4F202014FF480000860FFE7FFE7002072
:100EB0000090FFE70098632805DCFFE7FFE7009854
:100EC00001300090F6E7FFE79DF80B0001308DF848
:100ED0000B00B2E403B0704780B543F63001C4F2B2
:100EE0000201086840F07F00086043F64401C4F244
:100EF0000201086840F4804008600021C4F2020149
:100F0000086845F25552C0F255121043086040F28D
:100F10000041C4F20201086840F05530086040F614
:100F20000001C4F202014FF05530086040F6004164
:100F3000C4F20201086041F20001C4F2020108603B
:100F400041F20041C4F20201086041F60001C4F21E
:100F5000020108600421C4F2020108680020086050
:100F600040F20441C4F202010A68086040F604013C
:100F7000C4F202010A68086040F60441C4F20201AA
:100F80000A68086041F20401C4F202010A680860BC
:100F900041F20441C4F202010A68086041F604010A
:100FA000C4F202010A6808600822C4F202024FF08B
:100FB000FF31116040F20842C4F20202116040F6B3
:100FC0000802C4F20202116040F60842C4F20202B2
:100FD000116041F20802C4F20202116041F20842BB
:100FE000C4F20202116041F60802C4F2020211606A
:100FF0000C21C4F20201086040F20C41C4F202016B
:10100000086040F60C01C4F20201086040F60C4191
:10101000C4F20201086041F20C01C4F2020108604E
:1010200041F20C41C4F20201086041F60C01C4F225
:10103000020108601421C4F20201086040F2144168
:10104000C4F20201086040F61401C4F20201086013
:1010500040F61441C4F20201086041F21401C4F2E6
:101060000201086041F21441C4F20201086041F635
:101070001401C4F20201086043F61401C4F2010134
:10108000086820F0F0000860086840F02000086060
:1010900043F60041C4F20101086840F400500860C2
:1010A00043F60841C4F20101086840F400500860AA
:1010B000282000F001F880BD81B08DF803009DF973
:1010C000030000280ED4FFE79DF9031001F01F0272
:1010D000012090404A094EF20011CEF2000141F881
:1010E0002200FFE701B0704780B584B00020039074
:1010F000FFF7F2FEFFF724FAFFF7A6F941F6180111
:10110000C4F2020104200860FFF712FB0120FFF780
:101110000FFB41F2F240C0F60000FFF75DFA6FF0FE
:1011200017000290FFE70298FFF7CAFA002001902B
:10113000FFE70198952807DCFFE7FFF779FBFFE75A
:10114000019801300190F4E7029801300290029872
:1011500040F24411C2F200010968884204DDFFE751
:101160006FF017000290FFE7DDE7F1EE100A4FF68F
:10117000FF71C0F2C03120EA010040F04070E1EEA2
:10118000100A70470000000000000000000000008E
:10119000000000000000000000000000000000004F
:1011A000000000000000000000000000000000003F
:1011B000000000000000000000000000000000002F
:1011C000000000000000000000000000000000001F
:1011D000000000000000000000000000000000000F
:1011E00000000000000000000000000000000000FF
:1011F00000000000000000000000000000000000EF
:1012000000000000000000000000000000000000DE
:1012100000000000000000000000000000000000CE
:1012200000000000000000000000000000000000BE
:1012300000000000000000000000000000000000AE
:10124000000000000000000000000000000000009E
:10125000000000000000000000000000000000008E
:10126000000000000000000000000000000000007E
:10127000000000000000000000000000000000006E
:10128000000000000000000000000000000000005E
:10129000000000000000000000000000000000004E
:1012A000000000000000000000000000000000003E
:1012B000000000000000000000000000000000002E
:1012C000000000000000000000000000000000001E
:1012D000000000000000000000000000000000000E
:1012E00000000000000000000000000000000000FE
:1012F00000000000000000000000000000000000EE
:1013000000000000000000000000000000000000DD
:1013100000000000000000000000012800000000A4
:1013200000000000000000000000000000000000BD
:1013300000000000000000000000000000000000AD
:101340000000000000000000000000053E3F090909
:101350003E00053F3F25251A00051E3F21212100A3
:10136000053F3F21211E00053F3F25252500053F64
:101370003F05050100051E3F21291900053F3F04D7
:10138000043F0005213F3F2121000511213F1F019E
:1013900000053F3F0C122100053F3F2020200005A3
:1013A0003F0204023F00053F060C183F00051E3FA8
:1013B00021211E00053F3F09090600061E3F212985
:1013C0003E10053F3F0919260005262F2D3D190027
:1013D0000601013F3F0101051F3F20201F00050FAF
:1013E0001F30201F00063F3F1008103F0623170E36
:1013F0001C3A310503073C3C03000531392D2723F6
:1014000000000000000000000000000000000000DC
:1014100000000000000000000000000000000000CC
:101420000000000000000000000000051824243C1B
:101430002000043F24241800000418242424000061
:10144000041824243F000004182C2C2C000004F85D
:1014500024240400000498A4A47C0000043F040495
:101460003C0000013D00000000000280FD00000083
:1014700000043F0814240000013F000000000005A4
:101480003C043C043800043C0404380000041824E4
:101490002418000004FC242418000004182424FC50
:1014A0000000043C080404000004283C343400001C
:1014B00003083F08000000041C20203C000004102A
:1014C00020100C0000053C203C201C0004241818AF
:1014D000240000049CA0A0FC00000424342C240060
:1014E000004D61726C7920792043616C6C65203409
:1014F000350050726F78696D61732070617261643C
:1015000061733A204167756173207920556E697661
:101510006572736964616465730000002C150008CE
:0C152000000000204807000060020008E6
:04000005080002A944
:00000001FF
