:020000040800F2
:1000000000070020A9020008B1020008B30200089E
:10001000B5020008B7020008B9020008000000009D
:10002000000000000000000000000000BB0200080B
:10003000BD02000800000000BF020008C102000865
:10004000C3020008C3020008C3020008C30200087C
:10005000C3020008C3020008C3020008C30200086C
:10006000C3020008C3020008C3020008C30200085C
:10007000C3020008C3020008C3020008C30200084C
:10008000C3020008C3020008C3020008C30200083C
:10009000C3020008C3020008C3020008C30200082C
:1000A000C3020008C3020008C3020008C30200081C
:1000B000C3020008C3020008C3020008C30200080C
:1000C000C3020008C3020008C3020008C3020008FC
:1000D000C3020008C3020008C3020008C3020008EC
:1000E000C3020008C3020008C3020008C3020008DC
:1000F000C3020008C3020008C3020008C3020008CC
:10010000C3020008C3020008C3020008C3020008BB
:10011000C3020008C3020008C3020008C3020008AB
:10012000C3020008C3020008C3020008C30200089B
:10013000C3020008C3020008C3020008C30200088B
:10014000C3020008C3020008C3020008C30200087B
:10015000C3020008C3020008C3020008C30200086B
:10016000C3020008C3020008C3020008C30200085B
:10017000C3020008C3020008C30200080000000018
:10018000C3020008C3020008C3020008C30200083B
:10019000C3020008C3020008C3020008C30200082B
:1001A000C3020008C3020008C3020008C30200081B
:1001B000C3020008C3020008C3020008C30200080B
:1001C000C3020008C302000800000000C3020008C8
:1001D000C3020008C3020008C3020008C3020008EB
:1001E000C3020008C3020008C3020008C3020008DB
:1001F000C3020008C302000800F002F800F044F84F
:1002000014A696E8000CB244B344DA4501D100F0DC
:100210003BF8BAE80F000FA696E83000A5EB0405FE
:1002200004EB0607AAEB0704A7F101074FEA15152F
:100230004FEA3414A4F10104AC4201D300F024F8D5
:1002400013F0010F18BFFB1A43F0010300F001F88F
:10025000DBE71847D80E0000E80E000070470000EA
:100260000023002400250026103A28BF78C1FBD8BF
:10027000520728BF30C148BF0B6070471FB500F060
:100280008AFD1FBD10B510BD00F031F81146FFF713
:10029000F5FF00F04DFD00F04FF803B4FFF7F2FF5B
:1002A00003BC00F057F800000948804709480047A0
:1002B000FEE7FEE7FEE7FEE7FEE7FEE7FEE7FEE716
:1002C000FEE7FEE704480549054A064B7047000073
:1002D00069030008F9010008000100200007002060
:1002E00000030020000300207047704770477546E8
:1002F00000F02CF8AE4605006946534620F0070092
:10030000854618B020B5FFF7DDFFBDE820404FF06F
:1003100000064FF000074FF000084FF0000BAC460E
:10032000ACE8C009ACE8C009ACE8C009ACE8C00959
:1003300021F007018D46704710B50446AFF30080E9
:100340002046BDE81040FFF7A8BF000000487047F6
:100350000000002001491820ABBEFEE72600020085
:1003600070470000000000004EF68851CEF20001F8
:10037000086840F47000086070470000000000004A
:1003800086B0059040F2F801C2F20001002008603A
:100390000490FFE704987F280CDCFFE7049A40F202
:1003A0006001C2F2000100208854FFE70498013088
:1003B0000490EFE7FFE7059801780020009059B11D
:1003C000FFE740F2F800C2F200000168002078293F
:1003D000B8BF01200090FFE70098C00700283ED07A
:1003E000FFE705980078C0EBC00240F6B051C0F6B8
:1003F0000001881889580291D0F80300CDF80B004D
:1004000000200190FFE701989DF80810884215DA56
:10041000FFE7019902A80844407840F2F803C2F2CD
:1004200000031A68511C196040F26001C2F2000119
:100430008854FFE7019801300190E4E740F2F801A9
:10044000C2F200010A68501C086040F26001C2F26A
:10045000000100208854059801300590ABE706B0F4
:10046000704700000000000082B001900020009062
:10047000FFE7009817282CDCFFE701980099084453
:1004800040F2F801C2F200010968884214DAFFE77D
:1004900001980099084400280ED4FFE70198009ABB
:1004A000811840F26000C2F20000405C40F2E001BE
:1004B000C2F20001885407E0009A40F2E001C2F263
:1004C000000100208854FFE7FFE70098013000900A
:1004D000CFE702B07047000080B582B000208DF8F1
:1004E0000700FFE79DF80700072800F33F83FFE7B9
:1004F000FFE741F61803C4F202034FF00040186012
:100500004FF4003018604FF00051196041F21801AB
:10051000C4F20201086041F21842C4F202024FF034
:10052000807010604FF0806018604FF000701060B5
:100530004FF480000860FFE700208DF806008DF87A
:1005400005008DF804000090FFE70098072849DCBB
:10055000FFE7009940F2E000C2F20000405C9DF825
:100560000710C840C00750B1FFE70099012000FA0A
:1005700001F19DF8060008438DF80600FFE700989A
:1005800040F2E001C2F200010844007A9DF8071031
:10059000C840C00750B1FFE70099012000FA01F1FF
:1005A0009DF8050008438DF80500FFE7009840F22C
:1005B000E001C2F200010844007C9DF80710C84029
:1005C000C00750B1FFE70099012000FA01F19DF842
:1005D000040008438DF80400FFE7FFE700980130AE
:1005E0000090B2E7FFE79DF80600C00740B1FFE7C3
:1005F00040F21841C4F202014FF40070086007E0B5
:1006000040F21841C4F202014FF000700860FFE7A9
:100610009DF806008007002807D5FFE740F2184143
:10062000C4F202014020086007E040F21841C4F221
:1006300002014FF480000860FFE79DF806004007C4
:10064000002807D5FFE740F61801C4F20201802018
:10065000086007E040F61801C4F202014FF4000000
:100660000860FFE79DF806000007002806D5FFE7B1
:100670001821C4F202014020086006E01821C4F2EB
:1006800002014FF480000860FFE79DF80600C006F5
:10069000002807D5FFE71821C4F202014FF40070CB
:1006A000086006E01821C4F202014FF000700860F3
:1006B000FFE79DF806008006002806D5FFE7182111
:1006C000C4F202012020086006E01821C4F20201F1
:1006D0004FF400100860FFE79DF806004006002870
:1006E00008D5FFE740F21841C4F202014FF48070D0
:1006F000086007E040F21841C4F202014FF0807038
:100700000860FFE79DF806000006002808D5FFE70F
:1007100040F61801C4F202014FF40070086007E0CF
:1007200040F61801C4F202014FF000700860FFE7C4
:10073000FFE7FFE79DF80500C00738B1FFE7182184
:10074000C4F202014FF48060086006E01821C4F290
:1007500002014FF080600860FFE79DF80500800708
:10076000002806D5FFE71821C4F202011020086016
:1007700006E01821C4F202014FF480100860FFE780
:100780009DF805004007002807D5FFE740F2184113
:10079000C4F202010120086007E040F21841C4F2EF
:1007A00002014FF480300860FFE79DF80500000764
:1007B000002808D5FFE740F61841C4F202014FF4C3
:1007C0000050086007E040F61841C4F202014FF003
:1007D00000500860FFE79DF80500C006002807D517
:1007E000FFE740F61801C4F202010120086007E0AB
:1007F00040F61801C4F202014FF480300860FFE7B0
:100800009DF805008006002806D5FFE71821C4F2F0
:1008100002010820086006E01821C4F202014FF42A
:1008200000200860FFE79DF805004006002807D576
:10083000FFE740F21841C4F202012020086007E0FF
:1008400040F21841C4F202014FF400100860FFE7C3
:100850009DF805000006002808D5FFE740F2184182
:10086000C4F202014FF48060086007E040F21841D2
:10087000C4F202014FF080600860FFE7FFE7FFE786
:100880009DF80400C00740B1FFE741F21841C4F2EF
:1008900002014FF48050086007E041F21841C4F2B1
:1008A00002014FF080500860FFE79DF804008007C8
:1008B000002808D5FFE741F21841C4F202014FF4C5
:1008C0000050086007E041F21841C4F202014FF005
:1008D00000500860FFE79DF804004007002808D595
:1008E000FFE741F61801C4F202014FF480400860AE
:1008F00007E041F61801C4F202014FF080400860A1
:10090000FFE79DF804000007002808D5FFE740F640
:100910001841C4F202014FF48060086007E040F61D
:100920001841C4F202014FF080600860FFE79DF8B3
:100930000400C006002807D5FFE741F61801C4F2FD
:1009400002011020086007E041F61801C4F202011C
:100950004FF480100860FFE79DF80400800600282F
:1009600007D5FFE741F61801C4F2020180200860B4
:1009700007E041F61801C4F202014FF400000860DC
:10098000FFE79DF804004006002808D5FFE741F284
:100990001801C4F202014FF40050086007E041F270
:1009A0001801C4F202014FF000500860FFE79DF803
:1009B00004000006002808D5FFE741F21801C4F240
:1009C00002014FF40040086007E041F21801C4F250
:1009D00002014FF000400860FFE7FFE7FFE79DF8E6
:1009E000071001208840C00740B1FFE741F6180119
:1009F000C4F202014FF40040086007E041F618011C
:100A0000C4F202014FF000400860FFE79DF80710B4
:100A1000012088408007002807D5FFE741F618012C
:100A2000C4F202010220086007E041F61801C4F296
:100A300002014FF400300860FFE79DF80710012025
:100A400088404007002808D5FFE741F61801C4F2A6
:100A500002014FF40050086007E041F61801C4F2AB
:100A600002014FF000500860FFE79DF807100120D9
:100A700088400007002807D5FFE741F21801C4F2BB
:100A800002010220086007E041F21801C4F20201ED
:100A90004FF400300860FFE79DF807100120884000
:100AA000C006002808D5FFE741F21841C4F2020150
:100AB0004FF48070086007E041F21841C4F202016F
:100AC0004FF080700860FFE79DF807100120884014
:100AD0008006002808D5FFE741F61801C4F202019C
:100AE0004FF48060086007E041F61801C4F202018B
:100AF0004FF080600860FFE79DF8071001208840F4
:100B00004006002808D5FFE741F21841C4F202016F
:100B10004FF40070086007E041F21841C4F202018E
:100B20004FF000700860FFE79DF807100120884033
:100B30000006002807D5FFE741F21801C4F20201C0
:100B40004020086007E041F21801C4F202014FF4AE
:100B500080000860FFE7FFE7012000F0D1F8FFE721
:100B60009DF8070001308DF80700BBE402B080BD9E
:100B700043F63001C4F20201086840F07F000860CB
:100B80000021C4F20201086845F25552C0F2551224
:100B90001043086040F20041C4F20201086840F0CE
:100BA0005530086040F60001C4F202014FF05530A4
:100BB000086040F60041C4F20201086041F2000101
:100BC000C4F20201086041F20041C4F2020108606F
:100BD00041F60001C4F2020108600421C4F20201DE
:100BE00008680020086040F20441C4F202010A686B
:100BF000086040F60401C4F202010A68086040F689
:100C00000441C4F202010A68086041F20401C4F21E
:100C100002010A68086041F20441C4F202010A6854
:100C2000086041F60401C4F202010A680860082263
:100C3000C4F202024FF0FF31116040F20842C4F2E8
:100C40000202116040F60802C4F20202116040F68E
:100C50000842C4F20202116041F20802C4F2020228
:100C6000116041F20842C4F20202116041F608022A
:100C7000C4F2020211600C21C4F20201086040F2C9
:100C80000C41C4F20201086040F60C01C4F20201FA
:100C9000086040F60C41C4F20201086041F20C0108
:100CA000C4F20201086041F20C41C4F20201086082
:100CB00041F60C01C4F2020108601421C4F20201E1
:100CC000086040F21441C4F20201086040F61401C9
:100CD000C4F20201086040F61441C4F20201086047
:100CE00041F21401C4F20201086041F21441C4F25D
:100CF0000201086041F61401C4F202010860704765
:100D000083B00290029845F2604148430190002070
:100D10000090FFE700980199884205D2FFE7FFE7BE
:100D2000009801300090F5E703B070470000000024
:100D300080B584B000200390FFF71AFF41F20D1038
:100D4000C0F60000FFF71CFB6FF017000290FFE7F2
:100D50000298FFF789FB00200190FFE70198B0F5AA
:100D6000FA7F07DAFFE7FFF7B7FBFFE701980130EB
:100D70000190F3E7029801300290029840F2F801E6
:100D8000C2F200010968884204DDFFE76FF0170036
:100D90000290FFE7DCE7F1EE100A4FF6FF71C0F2B8
:100DA000C03120EA010040F04070E1EE100A7047C7
:100DB0000000000000000000000000000000000033
:100DC0000000000000000000000000000000000023
:100DD0000000000000000000000000000000000013
:100DE0000000000000000000000000000000000003
:100DF00000000000000000000000000000000000F3
:100E000000000000000000000000000000000000E2
:100E100000000000000000000000000000000000D2
:100E200000000000000000000000000000000000C2
:100E300000000000000000000000000000000000B2
:100E400000000000000000000000000000000000A2
:100E50000000000000000000000000000000000092
:100E60000000000000000000000000000000000082
:100E70000000000000000000000000000000000072
:100E80000000000000000000000000000000000062
:100E90000000000000000000000000000000000052
:100EA0000000000000000000000000000000000042
:100EB0000000000000000000000000000000000032
:100EC0000000000000000000000000000000000022
:100ED0000000000000000000000000000000000012
:100EE0000000000000000000000000000000000002
:100EF00000000000000000000000000000000000F2
:100F000000000000000000000000000000000000E1
:100F100000000000000000000000000000000000D1
:100F200000000000000000000000000000000000C1
:100F300000000000000000000000000000000000B1
:100F40000000000000000128000000000000000078
:100F50000000000000000000000000000000000091
:100F60000000000000000000000000000000000081
:100F700000000000000000053E3F09093E00053F5B
:100F80003F25251A00051E3F21212100053F3F2155
:100F9000211E00053F3F25252500053F3F05050192
:100FA00000051E3F21291900053F3F04043F0005AD
:100FB000213F3F2121000511213F1F0100053F3F37
:100FC0000C122100053F3F20202000053F020402B3
:100FD0003F00053F060C183F00051E3F21211E0063
:100FE000053F3F09090600061E3F21293E10053F27
:100FF0003F0919260005262F2D3D19000601013F46
:101000003F0101051F3F20201F00050F1F30201F3B
:1010100000063F3F1008103F0623170E1C3A31050B
:1010200003073C3C03000531392D27230000000055
:1010300000000000000000000000000000000000B0
:1010400000000000000000000000000000000000A0
:1010500000000000000000051824243C2000043F8C
:101060002424180000041824242400000418242434
:101070003F000004182C2C2C000004F82424040049
:10108000000498A4A47C0000043F04043C00000178
:101090003D00000000000280FD00000000043F0849
:1010A00014240000013F0000000000053C043C0443
:1010B0003800043C040438000004182424180000FC
:1010C00004FC242418000004182424FC0000043C20
:1010D000080404000004283C3434000003083F08DE
:1010E000000000041C20203C0000041020100C0014
:1010F00000053C203C201C00042418182400000497
:101100009CA0A0FC00000424342C240000484F4C78
:10111000412053544D3332202D2050524F594543D6
:10112000544F204D415452495A0000003C110008D0
:0C11300000000020000700006002000822
:04000005080002A944
:00000001FF
